{
  "_format": "hh-sol-artifact-1",
  "contractName": "AgeCheck",
  "sourceName": "contracts/AgeCheck.sol",
  "abi": [
    {
      "inputs": [
        {
          "internalType": "address",
          "name": "_verifier",
          "type": "address"
        },
        {
          "internalType": "address",
          "name": "_plonkVerifier",
          "type": "address"
        }
      ],
      "stateMutability": "nonpayable",
      "type": "constructor"
    },
    {
      "anonymous": false,
      "inputs": [
        {
          "indexed": true,
          "internalType": "address",
          "name": "person",
          "type": "address"
        },
        {
          "indexed": true,
          "internalType": "bool",
          "name": "verfied",
          "type": "bool"
        }
      ],
      "name": "AgeVerfied",
      "type": "event"
    },
    {
      "inputs": [
        {
          "internalType": "address",
          "name": "_user",
          "type": "address"
        }
      ],
      "name": "getVerficationStatus",
      "outputs": [
        {
          "internalType": "bool",
          "name": "",
          "type": "bool"
        }
      ],
      "stateMutability": "view",
      "type": "function"
    },
    {
      "inputs": [
        {
          "internalType": "bool",
          "name": "_status",
          "type": "bool"
        }
      ],
      "name": "setVerficationStatus",
      "outputs": [],
      "stateMutability": "nonpayable",
      "type": "function"
    },
    {
      "inputs": [
        {
          "internalType": "uint256[8]",
          "name": "_proof",
          "type": "uint256[8]"
        },
        {
          "internalType": "uint256[2]",
          "name": "_input",
          "type": "uint256[2]"
        }
      ],
      "name": "verifyUsingGroth",
      "outputs": [],
      "stateMutability": "nonpayable",
      "type": "function"
    },
    {
      "inputs": [
        {
          "internalType": "bytes",
          "name": "_proof",
          "type": "bytes"
        },
        {
          "internalType": "uint256[]",
          "name": "_pubSignals",
          "type": "uint256[]"
        }
      ],
      "name": "verifyUsingPlonk",
      "outputs": [],
      "stateMutability": "nonpayable",
      "type": "function"
    }
  ],
  "bytecode": "0x608060405234801561001057600080fd5b50604051610f3a380380610f3a833981810160405281019061003291906100cf565b816000806101000a81548173ffffffffffffffffffffffffffffffffffffffff021916908373ffffffffffffffffffffffffffffffffffffffff16021790555080600160006101000a81548173ffffffffffffffffffffffffffffffffffffffff021916908373ffffffffffffffffffffffffffffffffffffffff1602179055505050610154565b6000815190506100c98161013d565b92915050565b600080604083850312156100e257600080fd5b60006100f0858286016100ba565b9250506020610101858286016100ba565b9150509250929050565b60006101168261011d565b9050919050565b600073ffffffffffffffffffffffffffffffffffffffff82169050919050565b6101468161010b565b811461015157600080fd5b50565b610dd7806101636000396000f3fe608060405234801561001057600080fd5b506004361061004c5760003560e01c8063589bd29414610051578063b2f36f941461006d578063b911a90614610089578063bb0da039146100a5575b600080fd5b61006b6004803603810190610066919061090d565b6100d5565b005b610087600480360381019061008291906108bb565b61026a565b005b6100a3600480360381019061009e919061087d565b61030a565b005b6100bf60048036038101906100ba9190610854565b6106ef565b6040516100cc9190610bd4565b60405180910390f35b600160009054906101000a900473ffffffffffffffffffffffffffffffffffffffff1673ffffffffffffffffffffffffffffffffffffffff16631e8e1e13858585856040518563ffffffff1660e01b81526004016101369493929190610bef565b60206040518083038186803b15801561014e57600080fd5b505afa158015610162573d6000803e3d6000fd5b505050506040513d601f19601f8201168201806040525081019061018691906108e4565b6101c5576040517f08c379a00000000000000000000000000000000000000000000000000000000081526004016101bc90610c2a565b60405180910390fd5b6001600260003373ffffffffffffffffffffffffffffffffffffffff1673ffffffffffffffffffffffffffffffffffffffff16815260200190815260200160002060006101000a81548160ff021916908315150217905550600115153373ffffffffffffffffffffffffffffffffffffffff167fdc37acb7f25e80e6f2050d7947f0fa8be27cd3905c648b8184ab808f032f29f960405160405180910390a350505050565b80600260003373ffffffffffffffffffffffffffffffffffffffff1673ffffffffffffffffffffffffffffffffffffffff16815260200190815260200160002060006101000a81548160ff0219169083151502179055508015153373ffffffffffffffffffffffffffffffffffffffff167fdc37acb7f25e80e6f2050d7947f0fa8be27cd3905c648b8184ab808f032f29f960405160405180910390a350565b60008054906101000a900473ffffffffffffffffffffffffffffffffffffffff1673ffffffffffffffffffffffffffffffffffffffff1663f5c9d69e60405180604001604052808560006008811061038b577f4e487b7100000000000000000000000000000000000000000000000000000000600052603260045260246000fd5b60200201358152602001856001600881106103cf577f4e487b7100000000000000000000000000000000000000000000000000000000600052603260045260246000fd5b60200201358152506040518060400160405280604051806040016040528088600260088110610427577f4e487b7100000000000000000000000000000000000000000000000000000000600052603260045260246000fd5b602002013581526020018860036008811061046b577f4e487b7100000000000000000000000000000000000000000000000000000000600052603260045260246000fd5b602002013581525081526020016040518060400160405280886004600881106104bd577f4e487b7100000000000000000000000000000000000000000000000000000000600052603260045260246000fd5b6020020135815260200188600560088110610501577f4e487b7100000000000000000000000000000000000000000000000000000000600052603260045260246000fd5b6020020135815250815250604051806040016040528087600660088110610551577f4e487b7100000000000000000000000000000000000000000000000000000000600052603260045260246000fd5b6020020135815260200187600760088110610595577f4e487b7100000000000000000000000000000000000000000000000000000000600052603260045260246000fd5b6020020135815250856040518563ffffffff1660e01b81526004016105bd9493929190610b8d565b60206040518083038186803b1580156105d557600080fd5b505afa1580156105e9573d6000803e3d6000fd5b505050506040513d601f19601f8201168201806040525081019061060d91906108e4565b61064c576040517f08c379a000000000000000000000000000000000000000000000000000000000815260040161064390610c2a565b60405180910390fd5b6001600260003373ffffffffffffffffffffffffffffffffffffffff1673ffffffffffffffffffffffffffffffffffffffff16815260200190815260200160002060006101000a81548160ff021916908315150217905550600115153373ffffffffffffffffffffffffffffffffffffffff167fdc37acb7f25e80e6f2050d7947f0fa8be27cd3905c648b8184ab808f032f29f960405160405180910390a35050565b6000600260008373ffffffffffffffffffffffffffffffffffffffff1673ffffffffffffffffffffffffffffffffffffffff16815260200190815260200160002060009054906101000a900460ff169050919050565b60008135905061075481610d73565b92915050565b60008190508260206002028201111561077257600080fd5b92915050565b60008190508260206008028201111561079057600080fd5b92915050565b60008083601f8401126107a857600080fd5b8235905067ffffffffffffffff8111156107c157600080fd5b6020830191508360208202830111156107d957600080fd5b9250929050565b6000813590506107ef81610d8a565b92915050565b60008151905061080481610d8a565b92915050565b60008083601f84011261081c57600080fd5b8235905067ffffffffffffffff81111561083557600080fd5b60208301915083600182028301111561084d57600080fd5b9250929050565b60006020828403121561086657600080fd5b600061087484828501610745565b91505092915050565b600080610140838503121561089157600080fd5b600061089f85828601610778565b9250506101006108b18582860161075a565b9150509250929050565b6000602082840312156108cd57600080fd5b60006108db848285016107e0565b91505092915050565b6000602082840312156108f657600080fd5b6000610904848285016107f5565b91505092915050565b6000806000806040858703121561092357600080fd5b600085013567ffffffffffffffff81111561093d57600080fd5b6109498782880161080a565b9450945050602085013567ffffffffffffffff81111561096857600080fd5b61097487828801610796565b925092505092959194509250565b600061098e8383610a19565b60408301905092915050565b60006109a68383610b7e565b60208301905092915050565b6109bb81610c5e565b6109c58184610c8e565b92506109d082610c4a565b8060005b83811015610a015781516109e88782610982565b96506109f383610c74565b9250506001810190506109d4565b505050505050565b610a1560408383610d2a565b5050565b610a2281610c69565b610a2c8184610c99565b9250610a3782610c54565b8060005b83811015610a68578151610a4f878261099a565b9650610a5a83610c81565b925050600181019050610a3b565b505050505050565b610a7981610c69565b610a838184610ca4565b9250610a8e82610c54565b8060005b83811015610abf578151610aa6878261099a565b9650610ab183610c81565b925050600181019050610a92565b505050505050565b6000610ad38385610caf565b93507f07ffffffffffffffffffffffffffffffffffffffffffffffffffffffffffffff831115610b0257600080fd5b602083029250610b13838584610d2a565b82840190509392505050565b610b2881610cf4565b82525050565b6000610b3a8385610cc0565b9350610b47838584610d2a565b610b5083610d39565b840190509392505050565b6000610b68600f83610cd1565b9150610b7382610d4a565b602082019050919050565b610b8781610d20565b82525050565b600061014082019050610ba36000830187610a70565b610bb060408301866109b2565b610bbd60c0830185610a70565b610bcb610100830184610a09565b95945050505050565b6000602082019050610be96000830184610b1f565b92915050565b60006040820190508181036000830152610c0a818688610b2e565b90508181036020830152610c1f818486610ac7565b905095945050505050565b60006020820190508181036000830152610c4381610b5b565b9050919050565b6000819050919050565b6000819050919050565b600060029050919050565b600060029050919050565b6000602082019050919050565b6000602082019050919050565b600081905092915050565b600081905092915050565b600081905092915050565b600082825260208201905092915050565b600082825260208201905092915050565b600082825260208201905092915050565b6000610ced82610d00565b9050919050565b60008115159050919050565b600073ffffffffffffffffffffffffffffffffffffffff82169050919050565b6000819050919050565b82818337600083830152505050565b6000601f19601f8301169050919050565b7f42656c6f7720416765206c696d69740000000000000000000000000000000000600082015250565b610d7c81610ce2565b8114610d8757600080fd5b50565b610d9381610cf4565b8114610d9e57600080fd5b5056fea2646970667358221220b5caaac10cbc07c669dcf2652e4059427acb5791ce93c8cec46b84d8374cc34764736f6c63430008040033",
  "linkReferences": {},
  "deployedLinkReferences": {}
}