{
  "_format": "hh-sol-artifact-1",
  "contractName": "AgeCheck",
  "sourceName": "contracts/AgeCheck.sol",
  "abi": [
    {
      "inputs": [
        {
          "internalType": "address",
          "name": "_verifier",
          "type": "address"
        }
      ],
      "stateMutability": "nonpayable",
      "type": "constructor"
    },
    {
      "anonymous": false,
      "inputs": [
        {
          "indexed": false,
          "internalType": "address",
          "name": "person",
          "type": "address"
        },
        {
          "indexed": false,
          "internalType": "bool",
          "name": "verfied",
          "type": "bool"
        }
      ],
      "name": "AgeVerfied",
      "type": "event"
    },
    {
      "inputs": [
        {
          "internalType": "address",
          "name": "_user",
          "type": "address"
        }
      ],
      "name": "getVerficationStatus",
      "outputs": [
        {
          "internalType": "bool",
          "name": "",
          "type": "bool"
        }
      ],
      "stateMutability": "view",
      "type": "function"
    },
    {
      "inputs": [
        {
          "internalType": "bool",
          "name": "_status",
          "type": "bool"
        }
      ],
      "name": "setVerficationStatus",
      "outputs": [],
      "stateMutability": "nonpayable",
      "type": "function"
    },
    {
      "inputs": [
        {
          "internalType": "uint256[8]",
          "name": "_proof",
          "type": "uint256[8]"
        },
        {
          "internalType": "uint256[2]",
          "name": "_input",
          "type": "uint256[2]"
        }
      ],
      "name": "verifyAge",
      "outputs": [],
      "stateMutability": "nonpayable",
      "type": "function"
    }
  ],
  "bytecode": "0x608060405234801561001057600080fd5b50604051610b4c380380610b4c8339818101604052810190610032919061008d565b806000806101000a81548173ffffffffffffffffffffffffffffffffffffffff021916908373ffffffffffffffffffffffffffffffffffffffff160217905550506100ff565b600081519050610087816100e8565b92915050565b60006020828403121561009f57600080fd5b60006100ad84828501610078565b91505092915050565b60006100c1826100c8565b9050919050565b600073ffffffffffffffffffffffffffffffffffffffff82169050919050565b6100f1816100b6565b81146100fc57600080fd5b50565b610a3e8061010e6000396000f3fe608060405234801561001057600080fd5b50600436106100415760003560e01c8063b2f36f9414610046578063bb0da03914610062578063c75cf95d14610092575b600080fd5b610060600480360381019061005b9190610652565b6100ae565b005b61007c600480360381019061007791906105eb565b610143565b60405161008991906108a9565b60405180910390f35b6100ac60048036038101906100a79190610614565b610199565b005b6000600160003373ffffffffffffffffffffffffffffffffffffffff1673ffffffffffffffffffffffffffffffffffffffff16815260200190815260200160002060006101000a81548160ff0219169083151502179055507fdc37acb7f25e80e6f2050d7947f0fa8be27cd3905c648b8184ab808f032f29f9336000604051610138929190610839565b60405180910390a150565b6000600160008373ffffffffffffffffffffffffffffffffffffffff1673ffffffffffffffffffffffffffffffffffffffff16815260200190815260200160002060009054906101000a900460ff169050919050565b60008054906101000a900473ffffffffffffffffffffffffffffffffffffffff1673ffffffffffffffffffffffffffffffffffffffff1663f5c9d69e60405180604001604052808560006008811061021a577f4e487b7100000000000000000000000000000000000000000000000000000000600052603260045260246000fd5b602002013581526020018560016008811061025e577f4e487b7100000000000000000000000000000000000000000000000000000000600052603260045260246000fd5b602002013581525060405180604001604052806040518060400160405280886002600881106102b6577f4e487b7100000000000000000000000000000000000000000000000000000000600052603260045260246000fd5b60200201358152602001886003600881106102fa577f4e487b7100000000000000000000000000000000000000000000000000000000600052603260045260246000fd5b6020020135815250815260200160405180604001604052808860046008811061034c577f4e487b7100000000000000000000000000000000000000000000000000000000600052603260045260246000fd5b6020020135815260200188600560088110610390577f4e487b7100000000000000000000000000000000000000000000000000000000600052603260045260246000fd5b60200201358152508152506040518060400160405280876006600881106103e0577f4e487b7100000000000000000000000000000000000000000000000000000000600052603260045260246000fd5b6020020135815260200187600760088110610424577f4e487b7100000000000000000000000000000000000000000000000000000000600052603260045260246000fd5b6020020135815250856040518563ffffffff1660e01b815260040161044c9493929190610862565b60206040518083038186803b15801561046457600080fd5b505afa158015610478573d6000803e3d6000fd5b505050506040513d601f19601f8201168201806040525081019061049c919061067b565b6104db576040517f08c379a00000000000000000000000000000000000000000000000000000000081526004016104d2906108c4565b60405180910390fd5b60018060003373ffffffffffffffffffffffffffffffffffffffff1673ffffffffffffffffffffffffffffffffffffffff16815260200190815260200160002060006101000a81548160ff0219169083151502179055507fdc37acb7f25e80e6f2050d7947f0fa8be27cd3905c648b8184ab808f032f29f9336001604051610564929190610839565b60405180910390a15050565b60008135905061057f816109da565b92915050565b60008190508260206002028201111561059d57600080fd5b92915050565b6000819050826020600802820111156105bb57600080fd5b92915050565b6000813590506105d0816109f1565b92915050565b6000815190506105e5816109f1565b92915050565b6000602082840312156105fd57600080fd5b600061060b84828501610570565b91505092915050565b600080610140838503121561062857600080fd5b6000610636858286016105a3565b92505061010061064885828601610585565b9150509250929050565b60006020828403121561066457600080fd5b6000610672848285016105c1565b91505092915050565b60006020828403121561068d57600080fd5b600061069b848285016105d6565b91505092915050565b60006106b0838361074a565b60408301905092915050565b60006106c8838361082a565b60208301905092915050565b6106dd8161095a565b82525050565b6106ec816108f8565b6106f68184610928565b9250610701826108e4565b8060005b8381101561073257815161071987826106a4565b96506107248361090e565b925050600181019050610705565b505050505050565b610746604083836109a2565b5050565b61075381610903565b61075d8184610933565b9250610768826108ee565b8060005b8381101561079957815161078087826106bc565b965061078b8361091b565b92505060018101905061076c565b505050505050565b6107aa81610903565b6107b4818461093e565b92506107bf826108ee565b8060005b838110156107f05781516107d787826106bc565b96506107e28361091b565b9250506001810190506107c3565b505050505050565b6108018161096c565b82525050565b6000610814600f83610949565b915061081f826109b1565b602082019050919050565b61083381610998565b82525050565b600060408201905061084e60008301856106d4565b61085b60208301846107f8565b9392505050565b60006101408201905061087860008301876107a1565b61088560408301866106e3565b61089260c08301856107a1565b6108a061010083018461073a565b95945050505050565b60006020820190506108be60008301846107f8565b92915050565b600060208201905081810360008301526108dd81610807565b9050919050565b6000819050919050565b6000819050919050565b600060029050919050565b600060029050919050565b6000602082019050919050565b6000602082019050919050565b600081905092915050565b600081905092915050565b600081905092915050565b600082825260208201905092915050565b600061096582610978565b9050919050565b60008115159050919050565b600073ffffffffffffffffffffffffffffffffffffffff82169050919050565b6000819050919050565b82818337600083830152505050565b7f42656c6f7720416765206c696d69740000000000000000000000000000000000600082015250565b6109e38161095a565b81146109ee57600080fd5b50565b6109fa8161096c565b8114610a0557600080fd5b5056fea2646970667358221220fc4bd3e263b77c617b5db46f6e7d05574295924cc28cc83115d1ed510b53080f64736f6c63430008040033",
  "linkReferences": {},
  "deployedLinkReferences": {}
}