{
  "_format": "hh-sol-artifact-1",
  "contractName": "AgeCheck",
  "sourceName": "contracts/AgeCheck.sol",
  "abi": [
    {
      "inputs": [
        {
          "internalType": "address",
          "name": "_verifier",
          "type": "address"
        }
      ],
      "stateMutability": "nonpayable",
      "type": "constructor"
    },
    {
      "anonymous": false,
      "inputs": [
        {
          "indexed": true,
          "internalType": "address",
          "name": "person",
          "type": "address"
        },
        {
          "indexed": true,
          "internalType": "bool",
          "name": "verfied",
          "type": "bool"
        }
      ],
      "name": "AgeVerfied",
      "type": "event"
    },
    {
      "inputs": [
        {
          "internalType": "address",
          "name": "_user",
          "type": "address"
        }
      ],
      "name": "getVerficationStatus",
      "outputs": [
        {
          "internalType": "bool",
          "name": "",
          "type": "bool"
        }
      ],
      "stateMutability": "view",
      "type": "function"
    },
    {
      "inputs": [
        {
          "internalType": "bool",
          "name": "_status",
          "type": "bool"
        }
      ],
      "name": "setVerficationStatus",
      "outputs": [],
      "stateMutability": "nonpayable",
      "type": "function"
    },
    {
      "inputs": [
        {
          "internalType": "uint256[8]",
          "name": "_proof",
          "type": "uint256[8]"
        },
        {
          "internalType": "uint256[2]",
          "name": "_input",
          "type": "uint256[2]"
        }
      ],
      "name": "verifyAge",
      "outputs": [],
      "stateMutability": "nonpayable",
      "type": "function"
    }
  ],
  "bytecode": "0x608060405234801561001057600080fd5b50604051610b2c380380610b2c8339818101604052810190610032919061008d565b806000806101000a81548173ffffffffffffffffffffffffffffffffffffffff021916908373ffffffffffffffffffffffffffffffffffffffff160217905550506100ff565b600081519050610087816100e8565b92915050565b60006020828403121561009f57600080fd5b60006100ad84828501610078565b91505092915050565b60006100c1826100c8565b9050919050565b600073ffffffffffffffffffffffffffffffffffffffff82169050919050565b6100f1816100b6565b81146100fc57600080fd5b50565b610a1e8061010e6000396000f3fe608060405234801561001057600080fd5b50600436106100415760003560e01c8063b2f36f9414610046578063bb0da03914610062578063c75cf95d14610092575b600080fd5b610060600480360381019061005b919061066a565b6100ae565b005b61007c60048036038101906100779190610603565b61014e565b6040516100899190610889565b60405180910390f35b6100ac60048036038101906100a7919061062c565b6101a4565b005b80600160003373ffffffffffffffffffffffffffffffffffffffff1673ffffffffffffffffffffffffffffffffffffffff16815260200190815260200160002060006101000a81548160ff0219169083151502179055508015153373ffffffffffffffffffffffffffffffffffffffff167fdc37acb7f25e80e6f2050d7947f0fa8be27cd3905c648b8184ab808f032f29f960405160405180910390a350565b6000600160008373ffffffffffffffffffffffffffffffffffffffff1673ffffffffffffffffffffffffffffffffffffffff16815260200190815260200160002060009054906101000a900460ff169050919050565b60008054906101000a900473ffffffffffffffffffffffffffffffffffffffff1673ffffffffffffffffffffffffffffffffffffffff1663f5c9d69e604051806040016040528085600060088110610225577f4e487b7100000000000000000000000000000000000000000000000000000000600052603260045260246000fd5b6020020135815260200185600160088110610269577f4e487b7100000000000000000000000000000000000000000000000000000000600052603260045260246000fd5b602002013581525060405180604001604052806040518060400160405280886002600881106102c1577f4e487b7100000000000000000000000000000000000000000000000000000000600052603260045260246000fd5b6020020135815260200188600360088110610305577f4e487b7100000000000000000000000000000000000000000000000000000000600052603260045260246000fd5b60200201358152508152602001604051806040016040528088600460088110610357577f4e487b7100000000000000000000000000000000000000000000000000000000600052603260045260246000fd5b602002013581526020018860056008811061039b577f4e487b7100000000000000000000000000000000000000000000000000000000600052603260045260246000fd5b60200201358152508152506040518060400160405280876006600881106103eb577f4e487b7100000000000000000000000000000000000000000000000000000000600052603260045260246000fd5b602002013581526020018760076008811061042f577f4e487b7100000000000000000000000000000000000000000000000000000000600052603260045260246000fd5b6020020135815250856040518563ffffffff1660e01b81526004016104579493929190610842565b60206040518083038186803b15801561046f57600080fd5b505afa158015610483573d6000803e3d6000fd5b505050506040513d601f19601f820116820180604052508101906104a79190610693565b6104e6576040517f08c379a00000000000000000000000000000000000000000000000000000000081526004016104dd906108a4565b60405180910390fd5b60018060003373ffffffffffffffffffffffffffffffffffffffff1673ffffffffffffffffffffffffffffffffffffffff16815260200190815260200160002060006101000a81548160ff021916908315150217905550600115153373ffffffffffffffffffffffffffffffffffffffff167fdc37acb7f25e80e6f2050d7947f0fa8be27cd3905c648b8184ab808f032f29f960405160405180910390a35050565b600081359050610597816109ba565b92915050565b6000819050826020600202820111156105b557600080fd5b92915050565b6000819050826020600802820111156105d357600080fd5b92915050565b6000813590506105e8816109d1565b92915050565b6000815190506105fd816109d1565b92915050565b60006020828403121561061557600080fd5b600061062384828501610588565b91505092915050565b600080610140838503121561064057600080fd5b600061064e858286016105bb565b9250506101006106608582860161059d565b9150509250929050565b60006020828403121561067c57600080fd5b600061068a848285016105d9565b91505092915050565b6000602082840312156106a557600080fd5b60006106b3848285016105ee565b91505092915050565b60006106c88383610753565b60408301905092915050565b60006106e08383610833565b60208301905092915050565b6106f5816108d8565b6106ff8184610908565b925061070a826108c4565b8060005b8381101561073b57815161072287826106bc565b965061072d836108ee565b92505060018101905061070e565b505050505050565b61074f60408383610982565b5050565b61075c816108e3565b6107668184610913565b9250610771826108ce565b8060005b838110156107a257815161078987826106d4565b9650610794836108fb565b925050600181019050610775565b505050505050565b6107b3816108e3565b6107bd818461091e565b92506107c8826108ce565b8060005b838110156107f95781516107e087826106d4565b96506107eb836108fb565b9250506001810190506107cc565b505050505050565b61080a8161094c565b82525050565b600061081d600f83610929565b915061082882610991565b602082019050919050565b61083c81610978565b82525050565b60006101408201905061085860008301876107aa565b61086560408301866106ec565b61087260c08301856107aa565b610880610100830184610743565b95945050505050565b600060208201905061089e6000830184610801565b92915050565b600060208201905081810360008301526108bd81610810565b9050919050565b6000819050919050565b6000819050919050565b600060029050919050565b600060029050919050565b6000602082019050919050565b6000602082019050919050565b600081905092915050565b600081905092915050565b600081905092915050565b600082825260208201905092915050565b600061094582610958565b9050919050565b60008115159050919050565b600073ffffffffffffffffffffffffffffffffffffffff82169050919050565b6000819050919050565b82818337600083830152505050565b7f42656c6f7720416765206c696d69740000000000000000000000000000000000600082015250565b6109c38161093a565b81146109ce57600080fd5b50565b6109da8161094c565b81146109e557600080fd5b5056fea2646970667358221220e34a188d85f5aa88daeeae7b87b9e83640ae6dc71f9db48fd946fec893fd2d6c64736f6c63430008040033",
  "linkReferences": {},
  "deployedLinkReferences": {}
}