{
  "_format": "hh-sol-artifact-1",
  "contractName": "Voting",
  "sourceName": "contracts/Voting.sol",
  "abi": [
    {
      "inputs": [
        {
          "internalType": "address",
          "name": "_verifier",
          "type": "address"
        }
      ],
      "stateMutability": "nonpayable",
      "type": "constructor"
    },
    {
      "anonymous": false,
      "inputs": [
        {
          "indexed": true,
          "internalType": "address",
          "name": "",
          "type": "address"
        },
        {
          "indexed": true,
          "internalType": "uint256",
          "name": "",
          "type": "uint256"
        }
      ],
      "name": "CommitmentRegistered",
      "type": "event"
    },
    {
      "anonymous": false,
      "inputs": [
        {
          "indexed": true,
          "internalType": "uint256",
          "name": "",
          "type": "uint256"
        },
        {
          "indexed": true,
          "internalType": "address",
          "name": "",
          "type": "address"
        }
      ],
      "name": "PollCreated",
      "type": "event"
    },
    {
      "anonymous": false,
      "inputs": [
        {
          "indexed": true,
          "internalType": "uint256",
          "name": "",
          "type": "uint256"
        },
        {
          "indexed": true,
          "internalType": "address",
          "name": "",
          "type": "address"
        }
      ],
      "name": "PollEnded",
      "type": "event"
    },
    {
      "anonymous": false,
      "inputs": [
        {
          "indexed": true,
          "internalType": "uint256",
          "name": "",
          "type": "uint256"
        },
        {
          "indexed": true,
          "internalType": "address",
          "name": "",
          "type": "address"
        }
      ],
      "name": "PollStarted",
      "type": "event"
    },
    {
      "anonymous": false,
      "inputs": [
        {
          "indexed": true,
          "internalType": "uint256",
          "name": "",
          "type": "uint256"
        },
        {
          "indexed": true,
          "internalType": "uint256",
          "name": "",
          "type": "uint256"
        }
      ],
      "name": "Voted",
      "type": "event"
    },
    {
      "inputs": [
        {
          "internalType": "uint256",
          "name": "_vote",
          "type": "uint256"
        },
        {
          "internalType": "uint256",
          "name": "_nullifierHash",
          "type": "uint256"
        },
        {
          "internalType": "uint256",
          "name": "_pollId",
          "type": "uint256"
        },
        {
          "internalType": "uint256[8]",
          "name": "_proof",
          "type": "uint256[8]"
        },
        {
          "internalType": "uint256[2]",
          "name": "_input",
          "type": "uint256[2]"
        }
      ],
      "name": "castVote",
      "outputs": [],
      "stateMutability": "nonpayable",
      "type": "function"
    },
    {
      "inputs": [],
      "name": "commitmentTree",
      "outputs": [
        {
          "internalType": "uint8",
          "name": "depth",
          "type": "uint8"
        },
        {
          "internalType": "uint256",
          "name": "root",
          "type": "uint256"
        },
        {
          "internalType": "uint256",
          "name": "numberOfLeaves",
          "type": "uint256"
        }
      ],
      "stateMutability": "view",
      "type": "function"
    },
    {
      "inputs": [
        {
          "internalType": "uint256",
          "name": "_identityCommitment",
          "type": "uint256"
        },
        {
          "internalType": "string",
          "name": "_title",
          "type": "string"
        },
        {
          "internalType": "uint256",
          "name": "_quorum",
          "type": "uint256"
        }
      ],
      "name": "createPoll",
      "outputs": [],
      "stateMutability": "nonpayable",
      "type": "function"
    },
    {
      "inputs": [
        {
          "internalType": "uint256",
          "name": "pollId",
          "type": "uint256"
        }
      ],
      "name": "endPoll",
      "outputs": [],
      "stateMutability": "nonpayable",
      "type": "function"
    },
    {
      "inputs": [],
      "name": "getAllPolls",
      "outputs": [
        {
          "components": [
            {
              "internalType": "uint256",
              "name": "pollId",
              "type": "uint256"
            },
            {
              "internalType": "enum Voting.PollStatus",
              "name": "pollStatus",
              "type": "uint8"
            },
            {
              "internalType": "string",
              "name": "title",
              "type": "string"
            },
            {
              "internalType": "address",
              "name": "creator",
              "type": "address"
            },
            {
              "internalType": "uint256",
              "name": "quorum",
              "type": "uint256"
            },
            {
              "internalType": "uint256[]",
              "name": "votes",
              "type": "uint256[]"
            },
            {
              "internalType": "uint256",
              "name": "createdAt",
              "type": "uint256"
            }
          ],
          "internalType": "struct Voting.Poll[]",
          "name": "",
          "type": "tuple[]"
        }
      ],
      "stateMutability": "view",
      "type": "function"
    },
    {
      "inputs": [
        {
          "internalType": "uint256",
          "name": "_pollId",
          "type": "uint256"
        }
      ],
      "name": "getPollDetailsById",
      "outputs": [
        {
          "components": [
            {
              "internalType": "uint256",
              "name": "pollId",
              "type": "uint256"
            },
            {
              "internalType": "enum Voting.PollStatus",
              "name": "pollStatus",
              "type": "uint8"
            },
            {
              "internalType": "string",
              "name": "title",
              "type": "string"
            },
            {
              "internalType": "address",
              "name": "creator",
              "type": "address"
            },
            {
              "internalType": "uint256",
              "name": "quorum",
              "type": "uint256"
            },
            {
              "internalType": "uint256[]",
              "name": "votes",
              "type": "uint256[]"
            },
            {
              "internalType": "uint256",
              "name": "createdAt",
              "type": "uint256"
            }
          ],
          "internalType": "struct Voting.Poll",
          "name": "",
          "type": "tuple"
        }
      ],
      "stateMutability": "view",
      "type": "function"
    },
    {
      "inputs": [],
      "name": "getPolls",
      "outputs": [
        {
          "internalType": "uint256[]",
          "name": "",
          "type": "uint256[]"
        }
      ],
      "stateMutability": "view",
      "type": "function"
    },
    {
      "inputs": [
        {
          "internalType": "uint256",
          "name": "",
          "type": "uint256"
        }
      ],
      "name": "nullifierHashes",
      "outputs": [
        {
          "internalType": "bool",
          "name": "",
          "type": "bool"
        }
      ],
      "stateMutability": "view",
      "type": "function"
    },
    {
      "inputs": [],
      "name": "pollIdCounter",
      "outputs": [
        {
          "internalType": "uint256",
          "name": "",
          "type": "uint256"
        }
      ],
      "stateMutability": "view",
      "type": "function"
    },
    {
      "inputs": [
        {
          "internalType": "uint256",
          "name": "",
          "type": "uint256"
        }
      ],
      "name": "pollIds",
      "outputs": [
        {
          "internalType": "uint256",
          "name": "",
          "type": "uint256"
        }
      ],
      "stateMutability": "view",
      "type": "function"
    },
    {
      "inputs": [
        {
          "internalType": "uint256",
          "name": "",
          "type": "uint256"
        }
      ],
      "name": "polls",
      "outputs": [
        {
          "internalType": "uint256",
          "name": "pollId",
          "type": "uint256"
        },
        {
          "internalType": "enum Voting.PollStatus",
          "name": "pollStatus",
          "type": "uint8"
        },
        {
          "internalType": "string",
          "name": "title",
          "type": "string"
        },
        {
          "internalType": "address",
          "name": "creator",
          "type": "address"
        },
        {
          "internalType": "uint256",
          "name": "quorum",
          "type": "uint256"
        },
        {
          "internalType": "uint256",
          "name": "createdAt",
          "type": "uint256"
        }
      ],
      "stateMutability": "view",
      "type": "function"
    },
    {
      "inputs": [
        {
          "internalType": "uint256",
          "name": "",
          "type": "uint256"
        }
      ],
      "name": "registeredCommitments",
      "outputs": [
        {
          "internalType": "bool",
          "name": "",
          "type": "bool"
        }
      ],
      "stateMutability": "view",
      "type": "function"
    },
    {
      "inputs": [
        {
          "internalType": "uint256",
          "name": "_identityCommitment",
          "type": "uint256"
        }
      ],
      "name": "regsiterCommitment",
      "outputs": [],
      "stateMutability": "nonpayable",
      "type": "function"
    },
    {
      "inputs": [
        {
          "internalType": "uint256",
          "name": "pollId",
          "type": "uint256"
        }
      ],
      "name": "startPoll",
      "outputs": [],
      "stateMutability": "nonpayable",
      "type": "function"
    }
  ],
  "bytecode": "0x60806040523480156200001157600080fd5b5060405162002b5238038062002b5283398181016040528101906200003791906200015f565b600673__$4c2cba6680386d05354b71d5a44411cc21$__63b4bdd117909160147f30644e72e131a029b85045b68181585d2833e84879b9709143e1f593f00000016040516020016200008990620001db565b6040516020818303038152906040528051906020012060001c620000ae919062000285565b6040518463ffffffff1660e01b8152600401620000ce93929190620001f2565b60006040518083038186803b158015620000e757600080fd5b505af4158015620000fc573d6000803e3d6000fd5b5050505080600b60006101000a81548173ffffffffffffffffffffffffffffffffffffffff021916908373ffffffffffffffffffffffffffffffffffffffff160217905550506200032f565b600081519050620001598162000315565b92915050565b6000602082840312156200017257600080fd5b6000620001828482850162000148565b91505092915050565b60006200019a6009836200022f565b9150620001a782620002ec565b600982019050919050565b8082525050565b620001c4816200026e565b82525050565b620001d58162000278565b82525050565b6000620001e8826200018b565b9150819050919050565b6000606082019050620002096000830186620001b2565b620002186020830185620001ca565b620002276040830184620001b9565b949350505050565b600081905092915050565b600062000247826200024e565b9050919050565b600073ffffffffffffffffffffffffffffffffffffffff82169050919050565b6000819050919050565b600060ff82169050919050565b600062000292826200026e565b91506200029f836200026e565b925082620002b257620002b1620002bd565b5b828206905092915050565b7f4e487b7100000000000000000000000000000000000000000000000000000000600052601260045260246000fd5b7f53656d6170686f72650000000000000000000000000000000000000000000000600082015250565b62000320816200023a565b81146200032c57600080fd5b50565b612813806200033f6000396000f3fe608060405234801561001057600080fd5b50600436106100ea5760003560e01c80633e0739431161008c57806373a5c08d1161006657806373a5c08d1461024b578063a02215351461027b578063ac2f007414610299578063f43b8778146102ce576100ea565b80633e073943146101df57806345b2a6a1146101fb5780635bc2321b1461021b576100ea565b8063235a0b9b116100c8578063235a0b9b14610159578063236e1b93146101895780632430c221146101a557806332b633fa146101c1576100ea565b8063120fe89b146100ef5780631a038b291461010d5780631f79a1e914610129575b600080fd5b6100f76102ea565b60405161010491906120ad565b60405180910390f35b61012760048036038101906101229190611a29565b610342565b005b610143600480360381019061013e9190611999565b610829565b60405161015091906120cf565b60405180910390f35b610173600480360381019061016e9190611999565b610849565b60405161018091906120cf565b60405180910390f35b6101a3600480360381019061019e91906119c2565b610869565b005b6101bf60048036038101906101ba9190611999565b610b4d565b005b6101c9610d75565b6040516101d69190612044565b60405180910390f35b6101f960048036038101906101f49190611999565b611067565b005b6102036111ad565b60405161021293929190612278565b60405180910390f35b61023560048036038101906102309190611999565b6111d2565b60405161024291906121d3565b60405180910390f35b61026560048036038101906102609190611999565b6113e4565b60405161027291906121f5565b60405180910390f35b610283611408565b60405161029091906121f5565b60405180910390f35b6102b360048036038101906102ae9190611999565b61140e565b6040516102c596959493929190612210565b60405180910390f35b6102e860048036038101906102e39190611999565b6114ff565b005b6060600280548060200260200160405190810160405280929190818152602001828054801561033857602002820191906000526020600020905b815481526020019060010190808311610324575b5050505050905090565b600060036000858152602001908152602001600020905060016002811115610393577f4e487b7100000000000000000000000000000000000000000000000000000000600052602160045260246000fd5b8160010160009054906101000a900460ff1660028111156103dd577f4e487b7100000000000000000000000000000000000000000000000000000000600052602160045260246000fd5b1461041d576040517f08c379a00000000000000000000000000000000000000000000000000000000081526004016104149061210a565b60405180910390fd5b600115156005600087815260200190815260200160002060009054906101000a900460ff16151514610484576040517f08c379a000000000000000000000000000000000000000000000000000000000815260040161047b9061214a565b60405180910390fd5b600b60009054906101000a900473ffffffffffffffffffffffffffffffffffffffff1673ffffffffffffffffffffffffffffffffffffffff1663f5c9d69e604051806040016040528086600060088110610507577f4e487b7100000000000000000000000000000000000000000000000000000000600052603260045260246000fd5b602002013581526020018660016008811061054b577f4e487b7100000000000000000000000000000000000000000000000000000000600052603260045260246000fd5b602002013581525060405180604001604052806040518060400160405280896002600881106105a3577f4e487b7100000000000000000000000000000000000000000000000000000000600052603260045260246000fd5b60200201358152602001896003600881106105e7577f4e487b7100000000000000000000000000000000000000000000000000000000600052603260045260246000fd5b60200201358152508152602001604051806040016040528089600460088110610639577f4e487b7100000000000000000000000000000000000000000000000000000000600052603260045260246000fd5b602002013581526020018960056008811061067d577f4e487b7100000000000000000000000000000000000000000000000000000000600052603260045260246000fd5b60200201358152508152506040518060400160405280886006600881106106cd577f4e487b7100000000000000000000000000000000000000000000000000000000600052603260045260246000fd5b6020020135815260200188600760088110610711577f4e487b7100000000000000000000000000000000000000000000000000000000600052603260045260246000fd5b6020020135815250866040518563ffffffff1660e01b81526004016107399493929190612066565b60206040518083038186803b15801561075157600080fd5b505afa158015610765573d6000803e3d6000fd5b505050506040513d601f19601f820116820180604052508101906107899190611970565b5060016005600087815260200190815260200160002060006101000a81548160ff0219169083151502179055506003600085815260200190815260200160002060050186908060018154018082558091505060019003906000526020600020016000909190919091505585847f84a5508ca0d85b42a876e75a9126f3ae7b43617ce60b170bf8805d34630bc65460405160405180910390a3505050505050565b60056020528060005260406000206000915054906101000a900460ff1681565b60046020528060005260406000206000915054906101000a900460ff1681565b6004600084815260200190815260200160002060009054906101000a900460ff166108c9576040517f08c379a00000000000000000000000000000000000000000000000000000000081526004016108c09061216a565b60405180910390fd5b6108d1611727565b33816060019073ffffffffffffffffffffffffffffffffffffffff16908173ffffffffffffffffffffffffffffffffffffffff168152505060015481600001818152505082816040018190525081816080018181525050428160c0018181525050600081602001906002811115610971577f4e487b7100000000000000000000000000000000000000000000000000000000600052602160045260246000fd5b908160028111156109ab577f4e487b7100000000000000000000000000000000000000000000000000000000600052602160045260246000fd5b81525050806003600060015481526020019081526020016000206000820151816000015560208201518160010160006101000a81548160ff02191690836002811115610a20577f4e487b7100000000000000000000000000000000000000000000000000000000600052602160045260246000fd5b02179055506040820151816002019080519060200190610a419291906117b2565b5060608201518160030160006101000a81548173ffffffffffffffffffffffffffffffffffffffff021916908373ffffffffffffffffffffffffffffffffffffffff1602179055506080820151816004015560a0820151816005019080519060200190610aaf929190611838565b5060c08201518160060155905050600260015490806001815401808255809150506001900390600052602060002001600090919091909150556001806000828254610afa919061241a565b925050819055503373ffffffffffffffffffffffffffffffffffffffff166001547fb447d309fd3b1a27466cdb08ccc02ee5188e9c71fc58af042bafe3e0bb45123060405160405180910390a350505050565b803373ffffffffffffffffffffffffffffffffffffffff166003600083815260200190815260200160002060030160009054906101000a900473ffffffffffffffffffffffffffffffffffffffff1673ffffffffffffffffffffffffffffffffffffffff1614610bf2576040517f08c379a0000000000000000000000000000000000000000000000000000000008152600401610be99061212a565b60405180910390fd5b60006002811115610c2c577f4e487b7100000000000000000000000000000000000000000000000000000000600052602160045260246000fd5b6003600084815260200190815260200160002060010160009054906101000a900460ff166002811115610c88577f4e487b7100000000000000000000000000000000000000000000000000000000600052602160045260246000fd5b14610cc8576040517f08c379a0000000000000000000000000000000000000000000000000000000008152600401610cbf9061218a565b60405180910390fd5b60016003600084815260200190815260200160002060010160006101000a81548160ff02191690836002811115610d28577f4e487b7100000000000000000000000000000000000000000000000000000000600052602160045260246000fd5b02179055503373ffffffffffffffffffffffffffffffffffffffff16827f2ee249e80f49d04a4beade589f2f9f21eef3aeda8f13fab333d1ab92b4869e3a60405160405180910390a35050565b6060600060028054905067ffffffffffffffff811115610dbe577f4e487b7100000000000000000000000000000000000000000000000000000000600052604160045260246000fd5b604051908082528060200260200182016040528015610df757816020015b610de4611727565b815260200190600190039081610ddc5790505b50905060005b60015481101561105f57600360008281526020019081526020016000206040518060e0016040529081600082015481526020016001820160009054906101000a900460ff166002811115610e7a577f4e487b7100000000000000000000000000000000000000000000000000000000600052602160045260246000fd5b6002811115610eb2577f4e487b7100000000000000000000000000000000000000000000000000000000600052602160045260246000fd5b8152602001600282018054610ec69061252c565b80601f0160208091040260200160405190810160405280929190818152602001828054610ef29061252c565b8015610f3f5780601f10610f1457610100808354040283529160200191610f3f565b820191906000526020600020905b815481529060010190602001808311610f2257829003601f168201915b505050505081526020016003820160009054906101000a900473ffffffffffffffffffffffffffffffffffffffff1673ffffffffffffffffffffffffffffffffffffffff1673ffffffffffffffffffffffffffffffffffffffff1681526020016004820154815260200160058201805480602002602001604051908101604052809291908181526020018280548015610ff757602002820191906000526020600020905b815481526020019060010190808311610fe3575b50505050508152602001600682015481525050828281518110611043577f4e487b7100000000000000000000000000000000000000000000000000000000600052603260045260246000fd5b6020026020010181905250806110589061258f565b9050610dfd565b508091505090565b600015156004600083815260200190815260200160002060009054906101000a900460ff161515146110ce576040517f08c379a00000000000000000000000000000000000000000000000000000000081526004016110c5906120ea565b60405180910390fd5b60016004600083815260200190815260200160002060006101000a81548160ff021916908315150217905550600673__$4c2cba6680386d05354b71d5a44411cc21$__63168703fa9091836040518363ffffffff1660e01b81526004016111369291906121aa565b60006040518083038186803b15801561114e57600080fd5b505af4158015611162573d6000803e3d6000fd5b50505050803373ffffffffffffffffffffffffffffffffffffffff167f62d7a5b890fbbb091c9fcff51f252db2ac6b776d49c5c9c0a05ed2eb56e937c560405160405180910390a350565b60068060000160009054906101000a900460ff16908060010154908060020154905083565b6111da611727565b600360008381526020019081526020016000206040518060e0016040529081600082015481526020016001820160009054906101000a900460ff16600281111561124d577f4e487b7100000000000000000000000000000000000000000000000000000000600052602160045260246000fd5b6002811115611285577f4e487b7100000000000000000000000000000000000000000000000000000000600052602160045260246000fd5b81526020016002820180546112999061252c565b80601f01602080910402602001604051908101604052809291908181526020018280546112c59061252c565b80156113125780601f106112e757610100808354040283529160200191611312565b820191906000526020600020905b8154815290600101906020018083116112f557829003601f168201915b505050505081526020016003820160009054906101000a900473ffffffffffffffffffffffffffffffffffffffff1673ffffffffffffffffffffffffffffffffffffffff1673ffffffffffffffffffffffffffffffffffffffff16815260200160048201548152602001600582018054806020026020016040519081016040528092919081815260200182805480156113ca57602002820191906000526020600020905b8154815260200190600101908083116113b6575b505050505081526020016006820154815250509050919050565b600281815481106113f457600080fd5b906000526020600020016000915090505481565b60015481565b60036020528060005260406000206000915090508060000154908060010160009054906101000a900460ff169080600201805461144a9061252c565b80601f01602080910402602001604051908101604052809291908181526020018280546114769061252c565b80156114c35780601f10611498576101008083540402835291602001916114c3565b820191906000526020600020905b8154815290600101906020018083116114a657829003601f168201915b5050505050908060030160009054906101000a900473ffffffffffffffffffffffffffffffffffffffff16908060040154908060060154905086565b803373ffffffffffffffffffffffffffffffffffffffff166003600083815260200190815260200160002060030160009054906101000a900473ffffffffffffffffffffffffffffffffffffffff1673ffffffffffffffffffffffffffffffffffffffff16146115a4576040517f08c379a000000000000000000000000000000000000000000000000000000000815260040161159b9061212a565b60405180910390fd5b600160028111156115de577f4e487b7100000000000000000000000000000000000000000000000000000000600052602160045260246000fd5b6003600084815260200190815260200160002060010160009054906101000a900460ff16600281111561163a577f4e487b7100000000000000000000000000000000000000000000000000000000600052602160045260246000fd5b1461167a576040517f08c379a00000000000000000000000000000000000000000000000000000000081526004016116719061210a565b60405180910390fd5b60026003600084815260200190815260200160002060010160006101000a81548160ff021916908360028111156116da577f4e487b7100000000000000000000000000000000000000000000000000000000600052602160045260246000fd5b02179055503373ffffffffffffffffffffffffffffffffffffffff16827fce994ead15e72a77a86ddf3b0184783c61c9af7e3aae02d7c0bdf3b4268fa18860405160405180910390a35050565b6040518060e001604052806000815260200160006002811115611773577f4e487b7100000000000000000000000000000000000000000000000000000000600052602160045260246000fd5b815260200160608152602001600073ffffffffffffffffffffffffffffffffffffffff1681526020016000815260200160608152602001600081525090565b8280546117be9061252c565b90600052602060002090601f0160209004810192826117e05760008555611827565b82601f106117f957805160ff1916838001178555611827565b82800160010185558215611827579182015b8281111561182657825182559160200191906001019061180b565b5b5090506118349190611885565b5090565b828054828255906000526020600020908101928215611874579160200282015b82811115611873578251825591602001919060010190611858565b5b5090506118819190611885565b5090565b5b8082111561189e576000816000905550600101611886565b5090565b60006118b56118b0846122d4565b6122af565b9050828152602081018484840111156118cd57600080fd5b6118d88482856124ea565b509392505050565b6000819050826020600202820111156118f857600080fd5b92915050565b60008190508260206008028201111561191657600080fd5b92915050565b60008151905061192b816127af565b92915050565b600082601f83011261194257600080fd5b81356119528482602086016118a2565b91505092915050565b60008135905061196a816127c6565b92915050565b60006020828403121561198257600080fd5b60006119908482850161191c565b91505092915050565b6000602082840312156119ab57600080fd5b60006119b98482850161195b565b91505092915050565b6000806000606084860312156119d757600080fd5b60006119e58682870161195b565b935050602084013567ffffffffffffffff811115611a0257600080fd5b611a0e86828701611931565b9250506040611a1f8682870161195b565b9150509250925092565b60008060008060006101a08688031215611a4257600080fd5b6000611a508882890161195b565b9550506020611a618882890161195b565b9450506040611a728882890161195b565b9350506060611a83888289016118fe565b925050610160611a95888289016118e0565b9150509295509295909350565b6000611aae8383611be0565b60408301905092915050565b6000611ac68383611ec2565b905092915050565b6000611ada8383612008565b60208301905092915050565b611aef81612470565b82525050565b611afe81612470565b82525050565b611b0d81612339565b611b1781846123a4565b9250611b2282612305565b8060005b83811015611b53578151611b3a8782611aa2565b9650611b4583612370565b925050600181019050611b26565b505050505050565b6000611b6682612344565b611b7081856123af565b935083602082028501611b828561230f565b8060005b85811015611bbe5784840389528151611b9f8582611aba565b9450611baa8361237d565b925060208a01995050600181019050611b86565b50829750879550505050505092915050565b611bdc604083836124ea565b5050565b611be98161234f565b611bf381846123c0565b9250611bfe8261231f565b8060005b83811015611c2f578151611c168782611ace565b9650611c218361238a565b925050600181019050611c02565b505050505050565b611c408161234f565b611c4a81846123cb565b9250611c558261231f565b8060005b83811015611c86578151611c6d8782611ace565b9650611c788361238a565b925050600181019050611c59565b505050505050565b6000611c998261235a565b611ca381856123d6565b9350611cae83612329565b8060005b83811015611cdf578151611cc68882611ace565b9750611cd183612397565b925050600181019050611cb2565b5085935050505092915050565b6000611cf78261235a565b611d0181856123e7565b9350611d0c83612329565b8060005b83811015611d3d578151611d248882611ace565b9750611d2f83612397565b925050600181019050611d10565b5085935050505092915050565b611d5381612482565b82525050565b611d62816124d8565b82525050565b611d71816124d8565b82525050565b6000611d8282612365565b611d8c81856123f8565b9350611d9c8185602086016124f9565b611da581612694565b840191505092915050565b6000611dbb82612365565b611dc58185612409565b9350611dd58185602086016124f9565b611dde81612694565b840191505092915050565b6000611df6601483612409565b9150611e01826126a5565b602082019050919050565b6000611e19601083612409565b9150611e24826126ce565b602082019050919050565b6000611e3c600b83612409565b9150611e47826126f7565b602082019050919050565b6000611e5f601183612409565b9150611e6a82612720565b602082019050919050565b6000611e82600d83612409565b9150611e8d82612749565b602082019050919050565b6000611ea5600c83612409565b9150611eb082612772565b602082019050919050565b8082525050565b600060e083016000830151611eda6000860182612008565b506020830151611eed6020860182611d59565b5060408301518482036040860152611f058282611d77565b9150506060830151611f1a6060860182611ae6565b506080830151611f2d6080860182612008565b5060a083015184820360a0860152611f458282611c8e565b91505060c0830151611f5a60c0860182612008565b508091505092915050565b600060e083016000830151611f7d6000860182612008565b506020830151611f906020860182611d59565b5060408301518482036040860152611fa88282611d77565b9150506060830151611fbd6060860182611ae6565b506080830151611fd06080860182612008565b5060a083015184820360a0860152611fe88282611c8e565b91505060c0830151611ffd60c0860182612008565b508091505092915050565b612011816124c1565b82525050565b612020816124c1565b82525050565b61202f816124c1565b82525050565b61203e816124cb565b82525050565b6000602082019050818103600083015261205e8184611b5b565b905092915050565b60006101408201905061207c6000830187611c37565b6120896040830186611b04565b61209660c0830185611c37565b6120a4610100830184611bd0565b95945050505050565b600060208201905081810360008301526120c78184611cec565b905092915050565b60006020820190506120e46000830184611d4a565b92915050565b6000602082019050818103600083015261210381611de9565b9050919050565b6000602082019050818103600083015261212381611e0c565b9050919050565b6000602082019050818103600083015261214381611e2f565b9050919050565b6000602082019050818103600083015261216381611e52565b9050919050565b6000602082019050818103600083015261218381611e75565b9050919050565b600060208201905081810360008301526121a381611e98565b9050919050565b60006040820190506121bf6000830185611ebb565b6121cc6020830184612026565b9392505050565b600060208201905081810360008301526121ed8184611f65565b905092915050565b600060208201905061220a6000830184612017565b92915050565b600060c0820190506122256000830189612017565b6122326020830188611d68565b81810360408301526122448187611db0565b90506122536060830186611af5565b6122606080830185612017565b61226d60a0830184612017565b979650505050505050565b600060608201905061228d6000830186612035565b61229a6020830185612017565b6122a76040830184612017565b949350505050565b60006122b96122ca565b90506122c5828261255e565b919050565b6000604051905090565b600067ffffffffffffffff8211156122ef576122ee612665565b5b6122f882612694565b9050602081019050919050565b6000819050919050565b6000819050602082019050919050565b6000819050919050565b6000819050602082019050919050565b600060029050919050565b600081519050919050565b600060029050919050565b600081519050919050565b600081519050919050565b6000602082019050919050565b6000602082019050919050565b6000602082019050919050565b6000602082019050919050565b600081905092915050565b600082825260208201905092915050565b600081905092915050565b600081905092915050565b600082825260208201905092915050565b600082825260208201905092915050565b600082825260208201905092915050565b600082825260208201905092915050565b6000612425826124c1565b9150612430836124c1565b9250827fffffffffffffffffffffffffffffffffffffffffffffffffffffffffffffffff03821115612465576124646125d8565b5b828201905092915050565b600061247b826124a1565b9050919050565b60008115159050919050565b600081905061249c8261279b565b919050565b600073ffffffffffffffffffffffffffffffffffffffff82169050919050565b6000819050919050565b600060ff82169050919050565b60006124e38261248e565b9050919050565b82818337600083830152505050565b60005b838110156125175780820151818401526020810190506124fc565b83811115612526576000848401525b50505050565b6000600282049050600182168061254457607f821691505b6020821081141561255857612557612636565b5b50919050565b61256782612694565b810181811067ffffffffffffffff8211171561258657612585612665565b5b80604052505050565b600061259a826124c1565b91507fffffffffffffffffffffffffffffffffffffffffffffffffffffffffffffffff8214156125cd576125cc6125d8565b5b600182019050919050565b7f4e487b7100000000000000000000000000000000000000000000000000000000600052601160045260246000fd5b7f4e487b7100000000000000000000000000000000000000000000000000000000600052602160045260246000fd5b7f4e487b7100000000000000000000000000000000000000000000000000000000600052602260045260246000fd5b7f4e487b7100000000000000000000000000000000000000000000000000000000600052604160045260246000fd5b6000601f19601f8301169050919050565b7f4475706c696361746520636f6d6d69746d656e74000000000000000000000000600082015250565b7f506f6c6c206e6f74207374617274656400000000000000000000000000000000600082015250565b7f4e6f742063726561746f72000000000000000000000000000000000000000000600082015250565b7f496e76616c6964206e756c6c6966696572000000000000000000000000000000600082015250565b7f4e6f20636f6d6d69746d656e7400000000000000000000000000000000000000600082015250565b7f43616e6e6f742073746172740000000000000000000000000000000000000000600082015250565b600381106127ac576127ab612607565b5b50565b6127b881612482565b81146127c357600080fd5b50565b6127cf816124c1565b81146127da57600080fd5b5056fea264697066735822122046d3d5a77a1f5f217f0b08ca3493bb1c1274f444e71a4ac266857ba4b6f1e95f64736f6c63430008040033",
  "linkReferences": {
    "contracts/IncrementalBinaryTree.sol": {
      "IncrementalBinaryTree": [
        {
          "length": 20,
          "start": 59
        },
        {
          "length": 20,
          "start": 5181
        }
      ]
    }
  },
  "deployedLinkReferences": {
    "contracts/IncrementalBinaryTree.sol": {
      "IncrementalBinaryTree": [
        {
          "length": 20,
          "start": 4350
        }
      ]
    }
  }
}