{
  "_format": "hh-sol-artifact-1",
  "contractName": "Voting",
  "sourceName": "contracts/Voting.sol",
  "abi": [
    {
      "inputs": [
        {
          "internalType": "address",
          "name": "_verifier",
          "type": "address"
        }
      ],
      "stateMutability": "nonpayable",
      "type": "constructor"
    },
    {
      "anonymous": false,
      "inputs": [
        {
          "indexed": true,
          "internalType": "address",
          "name": "",
          "type": "address"
        },
        {
          "indexed": true,
          "internalType": "uint256",
          "name": "",
          "type": "uint256"
        }
      ],
      "name": "CommitmentRegistered",
      "type": "event"
    },
    {
      "anonymous": false,
      "inputs": [
        {
          "indexed": true,
          "internalType": "uint256",
          "name": "",
          "type": "uint256"
        },
        {
          "indexed": true,
          "internalType": "address",
          "name": "",
          "type": "address"
        }
      ],
      "name": "PollCreated",
      "type": "event"
    },
    {
      "anonymous": false,
      "inputs": [
        {
          "indexed": true,
          "internalType": "uint256",
          "name": "",
          "type": "uint256"
        },
        {
          "indexed": true,
          "internalType": "address",
          "name": "",
          "type": "address"
        }
      ],
      "name": "PollEnded",
      "type": "event"
    },
    {
      "anonymous": false,
      "inputs": [
        {
          "indexed": true,
          "internalType": "uint256",
          "name": "",
          "type": "uint256"
        },
        {
          "indexed": true,
          "internalType": "address",
          "name": "",
          "type": "address"
        }
      ],
      "name": "PollStarted",
      "type": "event"
    },
    {
      "anonymous": false,
      "inputs": [
        {
          "indexed": true,
          "internalType": "uint256",
          "name": "",
          "type": "uint256"
        },
        {
          "indexed": true,
          "internalType": "uint256",
          "name": "",
          "type": "uint256"
        }
      ],
      "name": "Voted",
      "type": "event"
    },
    {
      "inputs": [
        {
          "internalType": "uint256",
          "name": "_vote",
          "type": "uint256"
        },
        {
          "internalType": "uint256",
          "name": "_nullifierHash",
          "type": "uint256"
        },
        {
          "internalType": "uint256",
          "name": "_pollId",
          "type": "uint256"
        },
        {
          "internalType": "uint256[8]",
          "name": "_proof",
          "type": "uint256[8]"
        },
        {
          "internalType": "uint256[4]",
          "name": "_input",
          "type": "uint256[4]"
        }
      ],
      "name": "castVote",
      "outputs": [],
      "stateMutability": "nonpayable",
      "type": "function"
    },
    {
      "inputs": [],
      "name": "commitmentTree",
      "outputs": [
        {
          "internalType": "uint8",
          "name": "depth",
          "type": "uint8"
        },
        {
          "internalType": "uint256",
          "name": "root",
          "type": "uint256"
        },
        {
          "internalType": "uint256",
          "name": "numberOfLeaves",
          "type": "uint256"
        }
      ],
      "stateMutability": "view",
      "type": "function"
    },
    {
      "inputs": [
        {
          "internalType": "uint256",
          "name": "_identityCommitment",
          "type": "uint256"
        },
        {
          "internalType": "string",
          "name": "_title",
          "type": "string"
        },
        {
          "internalType": "uint256",
          "name": "_quorum",
          "type": "uint256"
        }
      ],
      "name": "createPoll",
      "outputs": [],
      "stateMutability": "nonpayable",
      "type": "function"
    },
    {
      "inputs": [
        {
          "internalType": "uint256",
          "name": "pollId",
          "type": "uint256"
        }
      ],
      "name": "endPoll",
      "outputs": [],
      "stateMutability": "nonpayable",
      "type": "function"
    },
    {
      "inputs": [],
      "name": "getAllPolls",
      "outputs": [
        {
          "components": [
            {
              "internalType": "uint256",
              "name": "pollId",
              "type": "uint256"
            },
            {
              "internalType": "enum Voting.PollStatus",
              "name": "pollStatus",
              "type": "uint8"
            },
            {
              "internalType": "string",
              "name": "title",
              "type": "string"
            },
            {
              "internalType": "address",
              "name": "creator",
              "type": "address"
            },
            {
              "internalType": "uint256",
              "name": "quorum",
              "type": "uint256"
            },
            {
              "internalType": "uint256[]",
              "name": "votes",
              "type": "uint256[]"
            },
            {
              "internalType": "uint256",
              "name": "createdAt",
              "type": "uint256"
            }
          ],
          "internalType": "struct Voting.Poll[]",
          "name": "",
          "type": "tuple[]"
        }
      ],
      "stateMutability": "view",
      "type": "function"
    },
    {
      "inputs": [
        {
          "internalType": "uint256",
          "name": "_pollId",
          "type": "uint256"
        }
      ],
      "name": "getPollDetailsById",
      "outputs": [
        {
          "components": [
            {
              "internalType": "uint256",
              "name": "pollId",
              "type": "uint256"
            },
            {
              "internalType": "enum Voting.PollStatus",
              "name": "pollStatus",
              "type": "uint8"
            },
            {
              "internalType": "string",
              "name": "title",
              "type": "string"
            },
            {
              "internalType": "address",
              "name": "creator",
              "type": "address"
            },
            {
              "internalType": "uint256",
              "name": "quorum",
              "type": "uint256"
            },
            {
              "internalType": "uint256[]",
              "name": "votes",
              "type": "uint256[]"
            },
            {
              "internalType": "uint256",
              "name": "createdAt",
              "type": "uint256"
            }
          ],
          "internalType": "struct Voting.Poll",
          "name": "",
          "type": "tuple"
        }
      ],
      "stateMutability": "view",
      "type": "function"
    },
    {
      "inputs": [],
      "name": "getPolls",
      "outputs": [
        {
          "internalType": "uint256[]",
          "name": "",
          "type": "uint256[]"
        }
      ],
      "stateMutability": "view",
      "type": "function"
    },
    {
      "inputs": [],
      "name": "getRegisteredCommitments",
      "outputs": [
        {
          "internalType": "uint256[]",
          "name": "",
          "type": "uint256[]"
        }
      ],
      "stateMutability": "view",
      "type": "function"
    },
    {
      "inputs": [
        {
          "internalType": "uint256",
          "name": "",
          "type": "uint256"
        }
      ],
      "name": "nullifierHashes",
      "outputs": [
        {
          "internalType": "bool",
          "name": "",
          "type": "bool"
        }
      ],
      "stateMutability": "view",
      "type": "function"
    },
    {
      "inputs": [],
      "name": "pollIdCounter",
      "outputs": [
        {
          "internalType": "uint256",
          "name": "",
          "type": "uint256"
        }
      ],
      "stateMutability": "view",
      "type": "function"
    },
    {
      "inputs": [
        {
          "internalType": "uint256",
          "name": "",
          "type": "uint256"
        }
      ],
      "name": "pollIds",
      "outputs": [
        {
          "internalType": "uint256",
          "name": "",
          "type": "uint256"
        }
      ],
      "stateMutability": "view",
      "type": "function"
    },
    {
      "inputs": [
        {
          "internalType": "uint256",
          "name": "",
          "type": "uint256"
        }
      ],
      "name": "polls",
      "outputs": [
        {
          "internalType": "uint256",
          "name": "pollId",
          "type": "uint256"
        },
        {
          "internalType": "enum Voting.PollStatus",
          "name": "pollStatus",
          "type": "uint8"
        },
        {
          "internalType": "string",
          "name": "title",
          "type": "string"
        },
        {
          "internalType": "address",
          "name": "creator",
          "type": "address"
        },
        {
          "internalType": "uint256",
          "name": "quorum",
          "type": "uint256"
        },
        {
          "internalType": "uint256",
          "name": "createdAt",
          "type": "uint256"
        }
      ],
      "stateMutability": "view",
      "type": "function"
    },
    {
      "inputs": [
        {
          "internalType": "uint256",
          "name": "",
          "type": "uint256"
        }
      ],
      "name": "registeredCommitments",
      "outputs": [
        {
          "internalType": "uint256",
          "name": "",
          "type": "uint256"
        }
      ],
      "stateMutability": "view",
      "type": "function"
    },
    {
      "inputs": [
        {
          "internalType": "uint256",
          "name": "",
          "type": "uint256"
        }
      ],
      "name": "registeredCommitmentsMapping",
      "outputs": [
        {
          "internalType": "bool",
          "name": "",
          "type": "bool"
        }
      ],
      "stateMutability": "view",
      "type": "function"
    },
    {
      "inputs": [
        {
          "internalType": "uint256",
          "name": "_identityCommitment",
          "type": "uint256"
        }
      ],
      "name": "regsiterCommitment",
      "outputs": [],
      "stateMutability": "nonpayable",
      "type": "function"
    },
    {
      "inputs": [
        {
          "internalType": "uint256",
          "name": "pollId",
          "type": "uint256"
        }
      ],
      "name": "startPoll",
      "outputs": [],
      "stateMutability": "nonpayable",
      "type": "function"
    }
  ],
  "bytecode": "0x60806040523480156200001157600080fd5b5060405162002c5b38038062002c5b83398181016040528101906200003791906200015f565b600773__$4c2cba6680386d05354b71d5a44411cc21$__63b4bdd117909160147f30644e72e131a029b85045b68181585d2833e84879b9709143e1f593f00000016040516020016200008990620001db565b6040516020818303038152906040528051906020012060001c620000ae919062000285565b6040518463ffffffff1660e01b8152600401620000ce93929190620001f2565b60006040518083038186803b158015620000e757600080fd5b505af4158015620000fc573d6000803e3d6000fd5b5050505080600c60006101000a81548173ffffffffffffffffffffffffffffffffffffffff021916908373ffffffffffffffffffffffffffffffffffffffff160217905550506200032f565b600081519050620001598162000315565b92915050565b6000602082840312156200017257600080fd5b6000620001828482850162000148565b91505092915050565b60006200019a6009836200022f565b9150620001a782620002ec565b600982019050919050565b8082525050565b620001c4816200026e565b82525050565b620001d58162000278565b82525050565b6000620001e8826200018b565b9150819050919050565b6000606082019050620002096000830186620001b2565b620002186020830185620001ca565b620002276040830184620001b9565b949350505050565b600081905092915050565b600062000247826200024e565b9050919050565b600073ffffffffffffffffffffffffffffffffffffffff82169050919050565b6000819050919050565b600060ff82169050919050565b600062000292826200026e565b91506200029f836200026e565b925082620002b257620002b1620002bd565b5b828206905092915050565b7f4e487b7100000000000000000000000000000000000000000000000000000000600052601260045260246000fd5b7f53656d6170686f72650000000000000000000000000000000000000000000000600082015250565b62000320816200023a565b81146200032c57600080fd5b50565b61291c806200033f6000396000f3fe608060405234801561001057600080fd5b50600436106101005760003560e01c80635bc2321b11610097578063c34a002b11610066578063c34a002b146102c8578063d5cf5a39146102e6578063d645a32114610302578063f43b87781461033257610100565b80635bc2321b1461021557806373a5c08d14610245578063a022153514610275578063ac2f00741461029357610100565b80632430c221116100d35780632430c2211461019f57806332b633fa146101bb5780633e073943146101d957806345b2a6a1146101f557610100565b8063120fe89b146101055780631f79a1e914610123578063235a0b9b14610153578063236e1b9314610183575b600080fd5b61010d61034e565b60405161011a91906121b6565b60405180910390f35b61013d60048036038101906101389190611aa2565b6103a6565b60405161014a91906121d8565b60405180910390f35b61016d60048036038101906101689190611aa2565b6103c6565b60405161017a91906122fe565b60405180910390f35b61019d60048036038101906101989190611acb565b6103ea565b005b6101b960048036038101906101b49190611aa2565b6106ce565b005b6101c36108f6565b6040516101d0919061214d565b60405180910390f35b6101f360048036038101906101ee9190611aa2565b610be8565b005b6101fd610d57565b60405161020c93929190612381565b60405180910390f35b61022f600480360381019061022a9190611aa2565b610d7c565b60405161023c91906122dc565b60405180910390f35b61025f600480360381019061025a9190611aa2565b610f8e565b60405161026c91906122fe565b60405180910390f35b61027d610fb2565b60405161028a91906122fe565b60405180910390f35b6102ad60048036038101906102a89190611aa2565b610fb8565b6040516102bf96959493929190612319565b60405180910390f35b6102d06110a9565b6040516102dd91906121b6565b60405180910390f35b61030060048036038101906102fb9190611b32565b611101565b005b61031c60048036038101906103179190611aa2565b6115e8565b60405161032991906121d8565b60405180910390f35b61034c60048036038101906103479190611aa2565b611608565b005b6060600280548060200260200160405190810160405280929190818152602001828054801561039c57602002820191906000526020600020905b815481526020019060010190808311610388575b5050505050905090565b60066020528060005260406000206000915054906101000a900460ff1681565b600581815481106103d657600080fd5b906000526020600020016000915090505481565b6004600084815260200190815260200160002060009054906101000a900460ff1661044a576040517f08c379a000000000000000000000000000000000000000000000000000000000815260040161044190612273565b60405180910390fd5b610452611830565b33816060019073ffffffffffffffffffffffffffffffffffffffff16908173ffffffffffffffffffffffffffffffffffffffff168152505060015481600001818152505082816040018190525081816080018181525050428160c00181815250506000816020019060028111156104f2577f4e487b7100000000000000000000000000000000000000000000000000000000600052602160045260246000fd5b9081600281111561052c577f4e487b7100000000000000000000000000000000000000000000000000000000600052602160045260246000fd5b81525050806003600060015481526020019081526020016000206000820151816000015560208201518160010160006101000a81548160ff021916908360028111156105a1577f4e487b7100000000000000000000000000000000000000000000000000000000600052602160045260246000fd5b021790555060408201518160020190805190602001906105c29291906118bb565b5060608201518160030160006101000a81548173ffffffffffffffffffffffffffffffffffffffff021916908373ffffffffffffffffffffffffffffffffffffffff1602179055506080820151816004015560a0820151816005019080519060200190610630929190611941565b5060c0820151816006015590505060026001549080600181540180825580915050600190039060005260206000200160009091909190915055600180600082825461067b9190612523565b925050819055503373ffffffffffffffffffffffffffffffffffffffff166001547fb447d309fd3b1a27466cdb08ccc02ee5188e9c71fc58af042bafe3e0bb45123060405160405180910390a350505050565b803373ffffffffffffffffffffffffffffffffffffffff166003600083815260200190815260200160002060030160009054906101000a900473ffffffffffffffffffffffffffffffffffffffff1673ffffffffffffffffffffffffffffffffffffffff1614610773576040517f08c379a000000000000000000000000000000000000000000000000000000000815260040161076a90612233565b60405180910390fd5b600060028111156107ad577f4e487b7100000000000000000000000000000000000000000000000000000000600052602160045260246000fd5b6003600084815260200190815260200160002060010160009054906101000a900460ff166002811115610809577f4e487b7100000000000000000000000000000000000000000000000000000000600052602160045260246000fd5b14610849576040517f08c379a000000000000000000000000000000000000000000000000000000000815260040161084090612293565b60405180910390fd5b60016003600084815260200190815260200160002060010160006101000a81548160ff021916908360028111156108a9577f4e487b7100000000000000000000000000000000000000000000000000000000600052602160045260246000fd5b02179055503373ffffffffffffffffffffffffffffffffffffffff16827f2ee249e80f49d04a4beade589f2f9f21eef3aeda8f13fab333d1ab92b4869e3a60405160405180910390a35050565b6060600060028054905067ffffffffffffffff81111561093f577f4e487b7100000000000000000000000000000000000000000000000000000000600052604160045260246000fd5b60405190808252806020026020018201604052801561097857816020015b610965611830565b81526020019060019003908161095d5790505b50905060005b600154811015610be057600360008281526020019081526020016000206040518060e0016040529081600082015481526020016001820160009054906101000a900460ff1660028111156109fb577f4e487b7100000000000000000000000000000000000000000000000000000000600052602160045260246000fd5b6002811115610a33577f4e487b7100000000000000000000000000000000000000000000000000000000600052602160045260246000fd5b8152602001600282018054610a4790612635565b80601f0160208091040260200160405190810160405280929190818152602001828054610a7390612635565b8015610ac05780601f10610a9557610100808354040283529160200191610ac0565b820191906000526020600020905b815481529060010190602001808311610aa357829003601f168201915b505050505081526020016003820160009054906101000a900473ffffffffffffffffffffffffffffffffffffffff1673ffffffffffffffffffffffffffffffffffffffff1673ffffffffffffffffffffffffffffffffffffffff1681526020016004820154815260200160058201805480602002602001604051908101604052809291908181526020018280548015610b7857602002820191906000526020600020905b815481526020019060010190808311610b64575b50505050508152602001600682015481525050828281518110610bc4577f4e487b7100000000000000000000000000000000000000000000000000000000600052603260045260246000fd5b602002602001018190525080610bd990612698565b905061097e565b508091505090565b600015156004600083815260200190815260200160002060009054906101000a900460ff16151514610c4f576040517f08c379a0000000000000000000000000000000000000000000000000000000008152600401610c46906121f3565b60405180910390fd5b60016004600083815260200190815260200160002060006101000a81548160ff021916908315150217905550600773__$4c2cba6680386d05354b71d5a44411cc21$__63168703fa9091836040518363ffffffff1660e01b8152600401610cb79291906122b3565b60006040518083038186803b158015610ccf57600080fd5b505af4158015610ce3573d6000803e3d6000fd5b505050506005819080600181540180825580915050600190039060005260206000200160009091909190915055803373ffffffffffffffffffffffffffffffffffffffff167f62d7a5b890fbbb091c9fcff51f252db2ac6b776d49c5c9c0a05ed2eb56e937c560405160405180910390a350565b60078060000160009054906101000a900460ff16908060010154908060020154905083565b610d84611830565b600360008381526020019081526020016000206040518060e0016040529081600082015481526020016001820160009054906101000a900460ff166002811115610df7577f4e487b7100000000000000000000000000000000000000000000000000000000600052602160045260246000fd5b6002811115610e2f577f4e487b7100000000000000000000000000000000000000000000000000000000600052602160045260246000fd5b8152602001600282018054610e4390612635565b80601f0160208091040260200160405190810160405280929190818152602001828054610e6f90612635565b8015610ebc5780601f10610e9157610100808354040283529160200191610ebc565b820191906000526020600020905b815481529060010190602001808311610e9f57829003601f168201915b505050505081526020016003820160009054906101000a900473ffffffffffffffffffffffffffffffffffffffff1673ffffffffffffffffffffffffffffffffffffffff1673ffffffffffffffffffffffffffffffffffffffff1681526020016004820154815260200160058201805480602002602001604051908101604052809291908181526020018280548015610f7457602002820191906000526020600020905b815481526020019060010190808311610f60575b505050505081526020016006820154815250509050919050565b60028181548110610f9e57600080fd5b906000526020600020016000915090505481565b60015481565b60036020528060005260406000206000915090508060000154908060010160009054906101000a900460ff1690806002018054610ff490612635565b80601f016020809104026020016040519081016040528092919081815260200182805461102090612635565b801561106d5780601f106110425761010080835404028352916020019161106d565b820191906000526020600020905b81548152906001019060200180831161105057829003601f168201915b5050505050908060030160009054906101000a900473ffffffffffffffffffffffffffffffffffffffff16908060040154908060060154905086565b606060058054806020026020016040519081016040528092919081815260200182805480156110f757602002820191906000526020600020905b8154815260200190600101908083116110e3575b5050505050905090565b600060036000858152602001908152602001600020905060016002811115611152577f4e487b7100000000000000000000000000000000000000000000000000000000600052602160045260246000fd5b8160010160009054906101000a900460ff16600281111561119c577f4e487b7100000000000000000000000000000000000000000000000000000000600052602160045260246000fd5b146111dc576040517f08c379a00000000000000000000000000000000000000000000000000000000081526004016111d390612213565b60405180910390fd5b600015156006600087815260200190815260200160002060009054906101000a900460ff16151514611243576040517f08c379a000000000000000000000000000000000000000000000000000000000815260040161123a90612253565b60405180910390fd5b600c60009054906101000a900473ffffffffffffffffffffffffffffffffffffffff1673ffffffffffffffffffffffffffffffffffffffff16635fe8c13b6040518060400160405280866000600881106112c6577f4e487b7100000000000000000000000000000000000000000000000000000000600052603260045260246000fd5b602002013581526020018660016008811061130a577f4e487b7100000000000000000000000000000000000000000000000000000000600052603260045260246000fd5b60200201358152506040518060400160405280604051806040016040528089600260088110611362577f4e487b7100000000000000000000000000000000000000000000000000000000600052603260045260246000fd5b60200201358152602001896003600881106113a6577f4e487b7100000000000000000000000000000000000000000000000000000000600052603260045260246000fd5b602002013581525081526020016040518060400160405280896004600881106113f8577f4e487b7100000000000000000000000000000000000000000000000000000000600052603260045260246000fd5b602002013581526020018960056008811061143c577f4e487b7100000000000000000000000000000000000000000000000000000000600052603260045260246000fd5b602002013581525081525060405180604001604052808860066008811061148c577f4e487b7100000000000000000000000000000000000000000000000000000000600052603260045260246000fd5b60200201358152602001886007600881106114d0577f4e487b7100000000000000000000000000000000000000000000000000000000600052603260045260246000fd5b6020020135815250866040518563ffffffff1660e01b81526004016114f8949392919061216f565b60206040518083038186803b15801561151057600080fd5b505afa158015611524573d6000803e3d6000fd5b505050506040513d601f19601f820116820180604052508101906115489190611a79565b5060016006600087815260200190815260200160002060006101000a81548160ff0219169083151502179055506003600085815260200190815260200160002060050186908060018154018082558091505060019003906000526020600020016000909190919091505585847f84a5508ca0d85b42a876e75a9126f3ae7b43617ce60b170bf8805d34630bc65460405160405180910390a3505050505050565b60046020528060005260406000206000915054906101000a900460ff1681565b803373ffffffffffffffffffffffffffffffffffffffff166003600083815260200190815260200160002060030160009054906101000a900473ffffffffffffffffffffffffffffffffffffffff1673ffffffffffffffffffffffffffffffffffffffff16146116ad576040517f08c379a00000000000000000000000000000000000000000000000000000000081526004016116a490612233565b60405180910390fd5b600160028111156116e7577f4e487b7100000000000000000000000000000000000000000000000000000000600052602160045260246000fd5b6003600084815260200190815260200160002060010160009054906101000a900460ff166002811115611743577f4e487b7100000000000000000000000000000000000000000000000000000000600052602160045260246000fd5b14611783576040517f08c379a000000000000000000000000000000000000000000000000000000000815260040161177a90612213565b60405180910390fd5b60026003600084815260200190815260200160002060010160006101000a81548160ff021916908360028111156117e3577f4e487b7100000000000000000000000000000000000000000000000000000000600052602160045260246000fd5b02179055503373ffffffffffffffffffffffffffffffffffffffff16827fce994ead15e72a77a86ddf3b0184783c61c9af7e3aae02d7c0bdf3b4268fa18860405160405180910390a35050565b6040518060e00160405280600081526020016000600281111561187c577f4e487b7100000000000000000000000000000000000000000000000000000000600052602160045260246000fd5b815260200160608152602001600073ffffffffffffffffffffffffffffffffffffffff1681526020016000815260200160608152602001600081525090565b8280546118c790612635565b90600052602060002090601f0160209004810192826118e95760008555611930565b82601f1061190257805160ff1916838001178555611930565b82800160010185558215611930579182015b8281111561192f578251825591602001919060010190611914565b5b50905061193d919061198e565b5090565b82805482825590600052602060002090810192821561197d579160200282015b8281111561197c578251825591602001919060010190611961565b5b50905061198a919061198e565b5090565b5b808211156119a757600081600090555060010161198f565b5090565b60006119be6119b9846123dd565b6123b8565b9050828152602081018484840111156119d657600080fd5b6119e18482856125f3565b509392505050565b600081905082602060040282011115611a0157600080fd5b92915050565b600081905082602060080282011115611a1f57600080fd5b92915050565b600081519050611a34816128b8565b92915050565b600082601f830112611a4b57600080fd5b8135611a5b8482602086016119ab565b91505092915050565b600081359050611a73816128cf565b92915050565b600060208284031215611a8b57600080fd5b6000611a9984828501611a25565b91505092915050565b600060208284031215611ab457600080fd5b6000611ac284828501611a64565b91505092915050565b600080600060608486031215611ae057600080fd5b6000611aee86828701611a64565b935050602084013567ffffffffffffffff811115611b0b57600080fd5b611b1786828701611a3a565b9250506040611b2886828701611a64565b9150509250925092565b60008060008060006101e08688031215611b4b57600080fd5b6000611b5988828901611a64565b9550506020611b6a88828901611a64565b9450506040611b7b88828901611a64565b9350506060611b8c88828901611a07565b925050610160611b9e888289016119e9565b9150509295509295909350565b6000611bb78383611cd9565b60408301905092915050565b6000611bcf8383611fcb565b905092915050565b6000611be38383612111565b60208301905092915050565b611bf881612579565b82525050565b611c0781612579565b82525050565b611c1681612442565b611c2081846124ad565b9250611c2b8261240e565b8060005b83811015611c5c578151611c438782611bab565b9650611c4e83612479565b925050600181019050611c2f565b505050505050565b6000611c6f8261244d565b611c7981856124b8565b935083602082028501611c8b85612418565b8060005b85811015611cc75784840389528151611ca88582611bc3565b9450611cb383612486565b925060208a01995050600181019050611c8f565b50829750879550505050505092915050565b611ce281612458565b611cec81846124c9565b9250611cf782612428565b8060005b83811015611d28578151611d0f8782611bd7565b9650611d1a83612493565b925050600181019050611cfb565b505050505050565b611d3981612458565b611d4381846124d4565b9250611d4e82612428565b8060005b83811015611d7f578151611d668782611bd7565b9650611d7183612493565b925050600181019050611d52565b505050505050565b611d93608083836125f3565b5050565b6000611da282612463565b611dac81856124df565b9350611db783612432565b8060005b83811015611de8578151611dcf8882611bd7565b9750611dda836124a0565b925050600181019050611dbb565b5085935050505092915050565b6000611e0082612463565b611e0a81856124f0565b9350611e1583612432565b8060005b83811015611e46578151611e2d8882611bd7565b9750611e38836124a0565b925050600181019050611e19565b5085935050505092915050565b611e5c8161258b565b82525050565b611e6b816125e1565b82525050565b611e7a816125e1565b82525050565b6000611e8b8261246e565b611e958185612501565b9350611ea5818560208601612602565b611eae8161279d565b840191505092915050565b6000611ec48261246e565b611ece8185612512565b9350611ede818560208601612602565b611ee78161279d565b840191505092915050565b6000611eff601483612512565b9150611f0a826127ae565b602082019050919050565b6000611f22601083612512565b9150611f2d826127d7565b602082019050919050565b6000611f45600b83612512565b9150611f5082612800565b602082019050919050565b6000611f68601183612512565b9150611f7382612829565b602082019050919050565b6000611f8b600d83612512565b9150611f9682612852565b602082019050919050565b6000611fae600c83612512565b9150611fb98261287b565b602082019050919050565b8082525050565b600060e083016000830151611fe36000860182612111565b506020830151611ff66020860182611e62565b506040830151848203604086015261200e8282611e80565b91505060608301516120236060860182611bef565b5060808301516120366080860182612111565b5060a083015184820360a086015261204e8282611d97565b91505060c083015161206360c0860182612111565b508091505092915050565b600060e0830160008301516120866000860182612111565b5060208301516120996020860182611e62565b50604083015184820360408601526120b18282611e80565b91505060608301516120c66060860182611bef565b5060808301516120d96080860182612111565b5060a083015184820360a08601526120f18282611d97565b91505060c083015161210660c0860182612111565b508091505092915050565b61211a816125ca565b82525050565b612129816125ca565b82525050565b612138816125ca565b82525050565b612147816125d4565b82525050565b600060208201905081810360008301526121678184611c64565b905092915050565b6000610180820190506121856000830187611d30565b6121926040830186611c0d565b61219f60c0830185611d30565b6121ad610100830184611d87565b95945050505050565b600060208201905081810360008301526121d08184611df5565b905092915050565b60006020820190506121ed6000830184611e53565b92915050565b6000602082019050818103600083015261220c81611ef2565b9050919050565b6000602082019050818103600083015261222c81611f15565b9050919050565b6000602082019050818103600083015261224c81611f38565b9050919050565b6000602082019050818103600083015261226c81611f5b565b9050919050565b6000602082019050818103600083015261228c81611f7e565b9050919050565b600060208201905081810360008301526122ac81611fa1565b9050919050565b60006040820190506122c86000830185611fc4565b6122d5602083018461212f565b9392505050565b600060208201905081810360008301526122f6818461206e565b905092915050565b60006020820190506123136000830184612120565b92915050565b600060c08201905061232e6000830189612120565b61233b6020830188611e71565b818103604083015261234d8187611eb9565b905061235c6060830186611bfe565b6123696080830185612120565b61237660a0830184612120565b979650505050505050565b6000606082019050612396600083018661213e565b6123a36020830185612120565b6123b06040830184612120565b949350505050565b60006123c26123d3565b90506123ce8282612667565b919050565b6000604051905090565b600067ffffffffffffffff8211156123f8576123f761276e565b5b6124018261279d565b9050602081019050919050565b6000819050919050565b6000819050602082019050919050565b6000819050919050565b6000819050602082019050919050565b600060029050919050565b600081519050919050565b600060029050919050565b600081519050919050565b600081519050919050565b6000602082019050919050565b6000602082019050919050565b6000602082019050919050565b6000602082019050919050565b600081905092915050565b600082825260208201905092915050565b600081905092915050565b600081905092915050565b600082825260208201905092915050565b600082825260208201905092915050565b600082825260208201905092915050565b600082825260208201905092915050565b600061252e826125ca565b9150612539836125ca565b9250827fffffffffffffffffffffffffffffffffffffffffffffffffffffffffffffffff0382111561256e5761256d6126e1565b5b828201905092915050565b6000612584826125aa565b9050919050565b60008115159050919050565b60008190506125a5826128a4565b919050565b600073ffffffffffffffffffffffffffffffffffffffff82169050919050565b6000819050919050565b600060ff82169050919050565b60006125ec82612597565b9050919050565b82818337600083830152505050565b60005b83811015612620578082015181840152602081019050612605565b8381111561262f576000848401525b50505050565b6000600282049050600182168061264d57607f821691505b602082108114156126615761266061273f565b5b50919050565b6126708261279d565b810181811067ffffffffffffffff8211171561268f5761268e61276e565b5b80604052505050565b60006126a3826125ca565b91507fffffffffffffffffffffffffffffffffffffffffffffffffffffffffffffffff8214156126d6576126d56126e1565b5b600182019050919050565b7f4e487b7100000000000000000000000000000000000000000000000000000000600052601160045260246000fd5b7f4e487b7100000000000000000000000000000000000000000000000000000000600052602160045260246000fd5b7f4e487b7100000000000000000000000000000000000000000000000000000000600052602260045260246000fd5b7f4e487b7100000000000000000000000000000000000000000000000000000000600052604160045260246000fd5b6000601f19601f8301169050919050565b7f4475706c696361746520636f6d6d69746d656e74000000000000000000000000600082015250565b7f506f6c6c206e6f74207374617274656400000000000000000000000000000000600082015250565b7f4e6f742063726561746f72000000000000000000000000000000000000000000600082015250565b7f496e76616c6964206e756c6c6966696572000000000000000000000000000000600082015250565b7f4e6f20636f6d6d69746d656e7400000000000000000000000000000000000000600082015250565b7f43616e6e6f742073746172740000000000000000000000000000000000000000600082015250565b600381106128b5576128b4612710565b5b50565b6128c18161258b565b81146128cc57600080fd5b50565b6128d8816125ca565b81146128e357600080fd5b5056fea26469706673582212209e9eac1e82f12bf535ad9aaabc95d733f1090f6885c4e390e70231ac216b1f0a64736f6c63430008040033",
  "linkReferences": {
    "contracts/IncrementalBinaryTree.sol": {
      "IncrementalBinaryTree": [
        {
          "length": 20,
          "start": 59
        },
        {
          "length": 20,
          "start": 4030
        }
      ]
    }
  },
  "deployedLinkReferences": {
    "contracts/IncrementalBinaryTree.sol": {
      "IncrementalBinaryTree": [
        {
          "length": 20,
          "start": 3199
        }
      ]
    }
  }
}